:100000000C9460000C947D000C947D000C947D0099
:100010000C942E020C947D000C947D000C947D00B9
:100020000C947D000C947D000C947D000C947D005C
:100030000C947D000C947D000C947D000C947D004C
:100040000C94F5020C947D000C942E030C945A032E
:100050000C947D000C947D000C947D000C947D002C
:100060000C947D000C947D0052656D6F74654B653A
:1000700079626F6172642076312E30206279204E71
:100080006564204B6F6E7A0D0A003F0D0A000D0A61
:10009000000D0A436F20466F2041632050720D0A05
:1000A0000020726C6F3A20000D0A7268693A2000D5
:1000B00020636C6F3A20000D0A6368693A200000E3
:1000C00011241FBECFEFD4E0DEBFCDBF11E0A0E012
:1000D000B1E0ECEDF7E002C005900D92A231B1075E
:1000E000D9F711E0A2E1B1E001C01D92AA37B10732
:1000F000E1F70E94B9010C94EC030C940000282F46
:10010000982F929596959695937084B18C7F84B92B
:1001100085B18C7F85B9992361F084B1892B84B92D
:10012000662321F085B19095982302C085B1982B64
:1001300095B9922F990F990F8AB183708AB98BB1B3
:1001400083708BB9992369F08AB1892B8AB96623A8
:1001500029F08BB1909598239BB908958BB1982B7A
:100160009BB90895EAE6F1E0E60FF11D908121E0E8
:1001700030E002C0220F331F8A95E2F7922B908362
:100180000895EAE6F1E0E60FF11D908121E030E00C
:1001900002C0220F331F8A95E2F72095292320837E
:1001A00008951F93182F82958F708A3010F0895C04
:1001B00001C0805D0E94BB03812F8F708A3010F0D8
:1001C000895C01C0805D0E94BB031F910895CF939D
:1001D000DF93C2C00E949E039C01AC014070411598
:1001E000510579F480911201E82FF0E0ED5EFE4FA9
:1001F00020838F5F809312012D30310509F0ACC050
:1002000007C04050514009F0AEC021E030E0ADC021
:1002100090911301923509F448C0933524F49D3030
:1002200009F095C048C0903719F0923709F08FC097
:10023000843009F08CC010921601309114013053B3
:10024000383050F5E0911501E053E73028F5809102
:100250001301803771F4F0E0E659FE4F208181E010
:1002600090E002C0880F991F3A95E2F7282B20836F
:1002700010C0823789F4F0E0E659FE4F208181E01A
:1002800090E002C0880F991F3A95E2F7809582238B
:10029000808320E030E05DC083E191E00E94D103E3
:1002A0008AE890E00E94DE0352C0823009F04FC01D
:1002B0004F935F93089587EB90E00E94DE03809157
:1002C00062010E94D10080EB90E00E94DE038091E9
:1002D00000010E94D10088EA90E00E94DE03809134
:1002E00071010E94D10081EA90E00E94DE038091BA
:1002F00001010E94D10081E990E00E94DE03C0E08C
:10030000D0E08C2F0E94D10080E20E94BB03FE014E
:10031000E659FE4F80810E94D10080E20E94BB031B
:10032000FE01ED59FE4F80810E94D10080E20E94C3
:10033000BB03FE01EE58FE4F80810E94D1008EE883
:1003400090E00E94DE032196C730D105D1F622E06D
:1003500030E01092120109C080911201873008F438
:1003600039CF1092120122E030E0C901DF91CF9124
:10037000089515B888E384B918B817B882E08BB926
:100380001AB814BC85E085BD81E080936E008FE3D0
:1003900080936C00809168008260809368008CE09C
:1003A00090E00E948403789488E690E00E94DE0347
:1003B0000E94E70083B7817F83BF83B7816083BFDB
:1003C000889583B78E7F83BFF3CFDF92EF92FF9242
:1003D0000F931F93CF93DF93E82EC62FD0E0FE013B
:1003E000ED59FE4F10819081FE01EE58FE4F808145
:1003F0001E25109589271823FF24F39400E380E33A
:10040000D82ED60E8F2D8123A1F08F2D8E2111F4A1
:1004100082E701C080E70E94BB03802F0E94BB03DC
:100420008D2D0E94BB038DE00E94BB038AE00E94D9
:10043000BB030F5F083311F0FF0CE4CFFE01ED5951
:10044000FE4F8081CE58DE4F8883E082DF91CF91CE
:100450001F910F91FF90EF90DF9008951F920F92E0
:100460000FB60F9211240F931F932F933F934F9327
:100470005F936F937F938F939F93AF93BF93EF930C
:10048000FF93E6B1EF73809162018E2B809362013E
:1004900080916201806C80936201809100018E23C3
:1004A00080930001809100018F738093000170910F
:1004B0001B01E7270E2F0F73EF70F0E0EE5FFE4F8A
:1004C0006081962F9F7011F410E003C0162F1295D3
:1004D0001F70E02FE295EF70F0E0EE5FFE4FE081DD
:1004E0008E2F8F7031F0980F1E2F12951F701C5F8A
:1004F00003C0992309F456C0913051F0913008F4AB
:1005000051C0953009F455C0963009F057C055C018
:1005100070931B0194B1292F30E0237030702115A6
:10052000310519F0892F8C7F84B96AB1462F50E0CC
:100530004C7F50704115510519F0862F83708AB990
:100540008AE18A95F1F7E3B1232B09F094B989B1D7
:100550009E2F9295990F990F907C86958695982B52
:10056000452B09F06AB980917101892B8093710143
:1005700080917101809371018091010189238093A1
:1005800001018091010180930101872F8927612F4B
:100590000E94E501E12FF0E0E659FE4F8081609175
:1005A0001B0104C070931B0180E060E00E947F008B
:1005B00007C0E02FE72770957CCF709570931B01E3
:1005C00000931C01FF91EF91BF91AF919F918F918B
:1005D0007F916F915F914F913F912F911F910F915B
:1005E0000F900FBE0F901F9018951F920F920FB68D
:1005F0000F9211242F933F934F935F936F937F93A9
:100600008F939F93AF93BF93EF93FF9394B12298EF
:100610008AE18A95F1F783B194B990E082FF91E085
:10062000892F66E00E94E5018091700180FF03C080
:100630002A98229A02C02A982298FF91EF91BF919E
:10064000AF919F918F917F916F915F914F913F916A
:100650002F910F900FBE0F901F9018951F920F9221
:100660000FB60F9211242F938F939F93EF93FF93C5
:100670009091C0002091C600E0915F01EF5FEF71A3
:1006800080916001E81711F482E008C0892F887119
:10069000E0935F01F0E0E35CFE4F20838093610113
:1006A000FF91EF919F918F912F910F900FBE0F901F
:1006B0001F9018951F920F920FB60F9211248F93CF
:1006C0009F93EF93FF9390915D0180915E01981746
:1006D00069F0E0915E01EF5FEF71E0935E01F0E0A1
:1006E000E35EFE4F80818093C60005C08091C1000B
:1006F0008F7D8093C100FF91EF919F918F910F901B
:100700000FBE0F901F9018959C0110925D011092E2
:100710005E0110925F011092600197FF04C082E0B9
:100720008093C0003F773093C5002093C40088E9D0
:100730008093C10086E08093C200089590915F018C
:1007400080916001981719F420E031E012C0E09127
:100750006001EF5FEF71E0936001F0E0E35CFE4F5A
:10076000308120916101922F80E0AC01430F511D37
:100770009A01C9010895282F90915D019F5F9F7193
:1007800080915E019817E1F3E92FF0E0E35EFE4F00
:10079000208390935D018091C10080628093C100AD
:1007A0000895CF93DF93EC0103C021960E94BB0311
:1007B00088818823D1F7DF91CF910895CF93DF937C
:1007C000EC0102C00E94BB03FE01219684918823A4
:0C07D000C9F7DF91CF910895F894FFCF96
:1007DC00FFFF000111122122222331323233323336
:0207EC003334A4
:00000001FF
