:100000000C9462000C947F000C947F000C947F0091
:100010000C944A020C947F000C947F000C947F0097
:100020000C947F000C947F000C947F000C947F0054
:100030000C947F000C947F000C947F000C947F0044
:100040000C941E030C947F000C9457030C948303B0
:100050000C947F000C947F000C947F000C947F0024
:100060000C947F000C947F0052656D6F74654B6536
:1000700079626F6172642076312E30206279204E71
:100080006564204B6F6E7A0D0A003F0D0A000D0A61
:10009000000D0A436F20466F2041632050722043B9
:1000A0005354520D0A0020726C6F3A20000D0A72F0
:1000B00068693A200020636C6F3A20000D0A63687B
:1000C000693A200011241FBECFEFD4E0DEBFCDBFC0
:1000D00011E0A0E0B1E0EEE2F8E002C005900D9280
:1000E000A431B107D9F711E0A4E1B1E001C01D923C
:1000F000A738B107E1F70E94D5010C9415040C94C0
:100100000000282F982F929596959695937084B11C
:100110008C7F84B985B18C7F85B9992361F084B1D6
:10012000892B84B9662321F085B19095982302C06C
:1001300085B1982B95B9922F990F990F8AB1837039
:100140008AB98BB183708BB9992369F08AB1892BF5
:100150008AB9662329F08BB1909598239BB90895AD
:100160008BB1982B9BB90895E7E7F1E0E60FF11DFD
:10017000908121E030E002C0220F331F8A95E2F720
:10018000922B90830895E7E7F1E0E60FF11D90814F
:1001900021E030E002C0220F331F8A95E2F720955C
:1001A0002923208308951F93182F82958F708A30FA
:1001B00010F0895C01C0805D0E94E403812F8F7084
:1001C0008A3010F0895C01C0805D0E94E4031F91B9
:1001D00008950F931F93CF93DF93D8C00E94C70356
:1001E0009C01AC0140704115510579F480911401D6
:1001F000E82FF0E0EB5EFE4F20838F5F80931401C9
:100200002D30310509F0C2C007C04050514009F0FF
:10021000C4C021E030E0C3C090911501923509F4CB
:1002200048C0933524F49D3009F0ABC048C09037E6
:1002300019F0923709F0A5C0843009F0A2C01092DD
:100240001801309116013053383050F5E091170104
:10025000E053E73028F580911501803771F4F0E024
:10026000E958FE4F208181E090E002C0880F991F7D
:100270003A95E2F7282B208310C0823789F4F0E00A
:10028000E958FE4F208181E090E002C0880F991F5D
:100290003A95E2F780958223808320E030E073C0B6
:1002A00085E191E00E94FA038AE890E00E94070449
:1002B00068C0823009F065C04F935F9308958CEB5E
:1002C00090E00E94070480916F010E94D30085EBAB
:1002D00090E00E940704809100010E94D3008DEA03
:1002E00090E00E94070480917E010E94D30086EA7C
:1002F00090E00E940704809101010E94D30081E9EF
:1003000090E00E940704C0E0D0E08C2F0E94D30050
:1003100080E20E94E403FE01E958FE4F80810E94C2
:10032000D30080E20E94E403FE01E059FE4F808189
:100330000E94D30080E20E94E403FE01E158FE4FD8
:1003400080810E94D30080E20E94E4038E01000FAE
:10035000111F0D591E4FF80180819181892F0E9434
:10036000D300F801808191810E94D3008EE890E053
:100370000E940704F801118210822196C730D1052E
:1003800021F622E030E01092140109C0809114019E
:10039000873008F423CF1092140122E030E0C90125
:1003A000DF91CF911F910F91089515B888E384B91B
:1003B00018B817B882E08BB91AB814BC85E085BDAF
:1003C00081E080936E008FE380936C0080916800E1
:1003D0008260809368008CE090E00E94AD03789486
:1003E00088E690E00E9407040E94E90083B7817FBD
:1003F00083BF83B7816083BF889583B78E7F83BFB8
:10040000F3CFDF92EF92FF920F931F93CF93DF937F
:10041000E82EC62FD0E0FE01E059FE4F10819081FA
:10042000FE01E158FE4F80811E2510958927182373
:10043000FF24F39400E390E3D92ED60E8F2D812371
:10044000A1F08F2D8E2111F482E701C080E70E9478
:10045000E403802F0E94E4038D2D0E94E4038DE0CD
:100460000E94E4038AE00E94E4030F5F083311F066
:10047000FF0CE4CFFE01E059FE4F8081C158DE4FF2
:100480008883E082DF91CF911F910F91FF90EF90D1
:10049000DF9008951F920F920FB60F921124FF92D2
:1004A0000F931F932F933F934F935F936F937F937C
:1004B0008F939F93AF93BF93EF93FF93E6B1EF7347
:1004C00080916F018E2B80936F0180916F01806C02
:1004D00080936F01809100018E23809300018091B1
:1004E00000018F738093000170910201E7274FE3B1
:1004F000F42EFE22EF70F0E0ED5FFE4F0081902FB2
:100500009F7011F460E003C0602F62956F70EF2D53
:10051000E295EF70F0E0ED5FFE4FE0818E2F8F707F
:1005200031F0980F6E2F62956F706C5F03C0992346
:1005300009F460C0913051F0913008F45BC09530FF
:1005400009F45FC0963009F061C05FC0709302018A
:1005500094B1292F30E0237030702115310519F046
:10056000892F8C7F84B9EAB14E2F50E04C7F5070B8
:100570004115510519F08E2F83708AB98AE18A9549
:10058000F1F7F3B1232B09F094B989B12F2F2295FC
:10059000220F220F207C86958695282B452B09F06B
:1005A000EAB980917E01822B80937E0180917E0149
:1005B00080937E01809101018223809301018091CB
:1005C000010180930101062F10E0F801EE0FFF1FDB
:1005D000ED59FE4F80819181019691838083872F11
:1005E00082270E94010209581E4FF8018081609104
:1005F000020104C07093020180E060E00E9481006B
:1006000007C0EF2DE727709571CF709570930201A9
:10061000F0921D01FF91EF91BF91AF919F918F914A
:100620007F916F915F914F913F912F911F910F910A
:10063000FF900F900FBE0F901F9018951F920F9272
:100640000FB60F9211242F933F934F935F936F93A5
:100650007F938F939F93AF93BF93EF93FF9394B147
:1006600022988AE18A95F1F783B194B990E082FFEC
:1006700091E0892F66E00E94010280917D0180FF58
:1006800003C02A98229A02C02A982298FF91EF91DB
:10069000BF91AF919F918F917F916F915F914F919A
:1006A0003F912F910F900FBE0F901F9018951F92A2
:1006B0000F920FB60F9211242F938F939F93EF9366
:1006C000FF939091C0002091C600E0916001EF5F20
:1006D000EF7180916101E81711F482E008C0892F61
:1006E0008871E0936001F0E0E25CFE4F208380932C
:1006F0006201FF91EF919F918F912F910F900FBE0B
:100700000F901F9018951F920F920FB60F92112401
:100710008F939F93EF93FF9390915E0180915F0180
:10072000981769F0E0915F01EF5FEF71E0935F016F
:10073000F0E0E25EFE4F80818093C60005C08091AC
:10074000C1008F7D8093C100FF91EF919F918F91A8
:100750000F900FBE0F901F9018959C0110925E0194
:1007600010925F01109260011092610197FF04C026
:1007700082E08093C0003F773093C5002093C4008F
:1007800088E98093C10086E08093C200089590912B
:10079000600180916101981719F420E031E012C0E6
:1007A000E0916101EF5FEF71E0936101F0E0E25CE5
:1007B000FE4F308120916201922F80E0AC01430F07
:1007C000511D9A01C9010895282F90915E019F5FE4
:1007D0009F7180915F019817E1F3E92FF0E0E25EED
:1007E000FE4F208390935E018091C10080628093D0
:1007F000C1000895CF93DF93EC0103C021960E94BE
:10080000E40388818823D1F7DF91CF910895CF93B6
:10081000DF93EC0102C00E94E403FE012196849163
:0E0820008823C9F7DF91CF910895F894FFCF98
:10082E00FFFFFF0001111221222223313232333217
:04083E00333334001C
:00000001FF
