:100000000C9470000C948D000C948D000C948D0059
:100010000C9469010C948D000C948D000C948D004F
:100020000C948D000C948D000C948D000C948D001C
:100030000C948D000C948D000C948D000C948D000C
:100040000C9430010C948D000C944A020C947502AF
:100050000C948D000C948D000C948D000C948D00EC
:100060000C948D000C948D000D0A004F763A200000
:100070000D0A000D0A436F20466F20416320507225
:1000800020526520435354520D0A0020726C6F3A7F
:1000900020000D0A7268693A200020636C6F3A20D4
:1000A000000D0A6368693A20003F0D0A0052656D31
:1000B0006F74654B6579626F6172642076312E30A2
:1000C000206279204E6564204B6F6E7A0D0A000025
:1000D00010112112222232132323332333334300FE
:1000E00011241FBECFEFD4E0DEBFCDBF11E0A0E0F2
:1000F000B1E0E4EBF8E002C005900D92A430B10746
:10010000D9F721E0A4E0B1E001C01D92A23CB20702
:10011000E1F70E940C030C9458040C940000EF9239
:10012000FF920F931F93CF93DF93262F30E0F901B7
:10013000EB55FE4F90815081D901A654BE4F7D01F1
:100140007C91D901A455BE4F4C912D543E4FE901ED
:10015000288198279095352F37279323342F3827D8
:1001600093232095922330E071E0292F272369F013
:10017000209111012F5F2F734091100124131BC098
:1001800020910F012F5F20930F01770F385F3034DC
:1001900061F73C91292F209523239823922B9C9340
:1001A0009081D7019C938083DF91CF911F910F9114
:1001B000FF90EF900895482F472300E009F000E4F6
:1001C0004091110150E0132F162B102B4E5E5E4F05
:1001D000EA01188320931101D8CF982F9295969514
:1001E0009695937024B12C7F24B925B12C7F25B925
:1001F000992349F024B1292B24B925B16623B9F0FC
:100200009095922395B9880F880F9AB193709AB9F7
:100210009BB193709BB9882349F09AB1982B9AB9F6
:100220009BB1662331F0809589238BB90895922B79
:10023000E9CF892BFACFCF93C82F82958F708A3060
:1002400058F0895C0E94DD028C2F8F708A3030F06C
:10025000895CCF910C94DD02805DF4CF805DF9CF95
:100260001F920F920FB60F9211242F933F934F932B
:100270005F936F937F938F939F93AF93BF93EF930E
:10028000FF9394B122988AE18A95F1F700C083B177
:1002900094B9809566E082FB882780F90E948F00E0
:1002A0008091B9012A9880FF12C0229AFF91EF91A4
:1002B000BF91AF919F918F917F916F915F914F917E
:1002C0003F912F910F900FBE0F901F90189522987D
:1002D000EDCF1F920F920FB60F9211241F932F9301
:1002E0003F934F935F936F937F938F939F93AF93BE
:1002F000BF93CF93DF93EF93FF93E6B1EF738091BA
:1003000005018E2B8093050180910501806C8093FF
:100310000501809102018E238093020180910201E8
:100320008F738093020180910001E8279E2F9F73B5
:10033000EF70F0E0E153FF4F6491E92FE295EF7029
:10034000F0E0E153FF4FE491262F22952F703E2FCE
:1003500032953F7011F1230FEF7064E06E0F25307E
:1003600009F469C0263009F46AC080930001213085
:10037000C9F0FF91EF91DF91CF91BF91AF919F9124
:100380008F917F916F915F914F913F912F911F912D
:100390000F900FBE0F901F901895222309F446C0AE
:1003A0006F70DDCF84B18C7F84B985B18C7F85B9C6
:1003B0008AB183708AB98BB183708BB98AE18A95CF
:1003C000F1F700C023B189B190E4299F9001112475
:1003D00086958695822B90910401982B9093040129
:1003E00090910401909304019091010198239093BE
:1003F0000101909101019093010110910001C62F1C
:10040000D0E0FE01EE0FFF1FE956FE4F2081318143
:100410002F5F3F4F3183208381270E948F00CD546F
:10042000DE4F8881612F0E94ED00A3CF80930001F1
:1004300060E080E0F8CFE92FE827809576CF8095BF
:100440008093000196CF4FB7F894E62FF0E0ED547B
:10045000FE4F908121E030E001C0220F8A95EAF73B
:10046000892F822B80834FBF08954FB7F894E62FD2
:10047000F0E0ED54FE4F508121E030E0B90102C0C0
:10048000660F771F8A95E2F7CB01809585238083DD
:100490004FBF08951F920F920FB60F9211242F9302
:1004A0008F939F93EF93FF938091C0009091C6002C
:1004B000E0915401EF5FEF71209153012E1799F0F5
:1004C0008871E0935401F0E0E95AFE4F90838093E5
:1004D0005201FF91EF919F918F912F910F900FBE3D
:1004E0000F901F90189582E0F2CF1F920F920FB6D7
:1004F0000F9211248F939F93EF93FF939091560146
:10050000809155019817A9F0E0915501EF5FEF71C7
:10051000E0935501F0E0E958FE4F80818093C600DA
:10052000FF91EF919F918F910F900FBE0F901F90B1
:1005300018958091C1008F7D8093C100F1CF1092FA
:10054000560110925501109254011092530197FFD9
:1005500004C022E02093C0009F779093C500809351
:10056000C40088E98093C10086E08093C2000895AA
:100570009091540180915301981799F0E0915301A3
:10058000EF5FEF71E0935301F0E0E95AFE4F2081F5
:1005900090915201892F90E0982F8827820F911D0A
:1005A000089580E091E008952091540190915301C5
:1005B00081E0291301C080E00895909156019F5F6A
:1005C0009F71209155012917E1F3E92FF0E0E958D7
:1005D000FE4F8083909356018091C100806280938A
:1005E000C1000895CF93DF93EC018991811103C07D
:1005F000DF91CF9108950E94DD02F7CFCF93DF9373
:10060000EC01FE0184912196811103C0DF91CF910D
:1006100008950E94DD02F5CF14BE0FB6F894A89598
:1006200080916000886180936000109260000FBE2E
:1006300015B888E384B918B817B882E08BB91AB82E
:1006400014BC85E085BD81E080936E008FE38093CC
:100650006C00809168008260809368008CE090E07C
:100660000E949F0278948DEA90E00E94FE02909191
:10067000100180911101981325C080910E018730DF
:10068000F0F40E94B8029C0122272115310509F0DF
:100690003EC0E0910E0121E02E0F20930E01F0E00C
:1006A000EA5FFE4F80830D9741F7909106019235E6
:1006B00009F473C00CF046C09D3009F47DC010925F
:1006C0000E01DBCFE0911001F0E0EE5EFE4FC08145
:1006D000809110018F5F8F738093100182E7C6FDB8
:1006E00080E70E94DD028C2F86958695869587701F
:1006F000805D0E94DD028C2F8770805D0E94DD028C
:100700008DE00E94DD028AE00E94DD02B0CF21155B
:10071000314009F0B2CFF89490911101809110010D
:100720009813C4C00E94D4028111C0C083B7817FD6
:1007300083BF83B7816083BF7894889583B78E7FAA
:1007400083BF95CF903719F0923709F0B8CF243096
:1007500009F0B5CF109209018091070180538830CC
:1007600098F4609108016053673070F4663011F4BA
:1007700081110AC0903719F40E942302A0CF92374A
:1007800019F40E9435029BCF86E091E00E94F202AC
:1007900089EA90E00E94FE0292CF223009F08FCFCA
:1007A000F89488E198E00FB6F894A89580936000DB
:1007B0000FBE90936000FFCF81EA90E00E94FE029E
:1007C000809105010E941B018AE990E00E94FE02CF
:1007D000809102010E941B0182E990E00E94FE02CA
:1007E000809104010E941B018BE890E00E94FE02B0
:1007F000809101010E941B0183E790E00E94FE02AC
:10080000D0E0C0E08FB7F894FE01EE0FFF1FE9566D
:10081000FE4F00811181118210828FBF8C2F0E94A8
:100820001B0180E20E94DD02FE01ED54FE4F80813B
:100830000E941B0180E20E94DD02FE01EB55FE4F8B
:1008400080810E941B0180E20E94DD02FE01E654CD
:10085000FE4F80810E941B0180E20E94DD02FE01AA
:10086000E455FE4F80810E941B0180E20E94DD0260
:10087000812F0E941B01802F0E941B0180E790E0C6
:100880000E94FE022196C730D10509F0BBCF8BE64E
:1008900090E00E94FE0280910F010E941B0188E6F9
:1008A00090E00E94FE0210920F0109CF7894DFCEF3
:0408B000F894FFCFEA
:0408B400FFFFFF0043
:00000001FF
